{
  "_format": "hh-sol-artifact-1",
  "contractName": "invoiceContract",
  "sourceName": "contracts/invoiceContract.sol",
  "abi": [
    {
      "inputs": [],
      "stateMutability": "nonpayable",
      "type": "constructor"
    },
    {
      "inputs": [
        {
          "internalType": "string",
          "name": "sellerPAN",
          "type": "string"
        },
        {
          "internalType": "string",
          "name": "buyerPAN",
          "type": "string"
        },
        {
          "internalType": "uint256",
          "name": "amount",
          "type": "uint256"
        },
        {
          "internalType": "uint256",
          "name": "date",
          "type": "uint256"
        }
      ],
      "name": "createInvoice",
      "outputs": [],
      "stateMutability": "nonpayable",
      "type": "function"
    },
    {
      "inputs": [
        {
          "internalType": "uint256",
          "name": "",
          "type": "uint256"
        }
      ],
      "name": "invoices",
      "outputs": [
        {
          "internalType": "string",
          "name": "sellerPAN",
          "type": "string"
        },
        {
          "internalType": "string",
          "name": "buyerPAN",
          "type": "string"
        },
        {
          "internalType": "uint256",
          "name": "invoiceAmount",
          "type": "uint256"
        },
        {
          "internalType": "uint256",
          "name": "invoiceDate",
          "type": "uint256"
        }
      ],
      "stateMutability": "view",
      "type": "function"
    }
  ],
  "bytecode": "0x608060405234801561001057600080fd5b50336000806101000a81548173ffffffffffffffffffffffffffffffffffffffff021916908373ffffffffffffffffffffffffffffffffffffffff160217905550610702806100606000396000f3fe608060405234801561001057600080fd5b50600436106100365760003560e01c80634e6d14051461003b578063d2a75ec81461006e575b600080fd5b61005560048036038101906100509190610449565b61008a565b60405161006594939291906104be565b60405180910390f35b610088600480360381019061008391906103aa565b6101da565b005b6001818154811061009a57600080fd5b90600052602060002090600402016000915090508060000180546100bd906105cf565b80601f01602080910402602001604051908101604052809291908181526020018280546100e9906105cf565b80156101365780601f1061010b57610100808354040283529160200191610136565b820191906000526020600020905b81548152906001019060200180831161011957829003601f168201915b50505050509080600101805461014b906105cf565b80601f0160208091040260200160405190810160405280929190818152602001828054610177906105cf565b80156101c45780601f10610199576101008083540402835291602001916101c4565b820191906000526020600020905b8154815290600101906020018083116101a757829003601f168201915b5050505050908060020154908060030154905084565b6000604051806080016040528086815260200185815260200184815260200183815250905060018190806001815401808255809150506001900390600052602060002090600402016000909190919091506000820151816000019080519060200190610247929190610282565b506020820151816001019080519060200190610264929190610282565b50604082015181600201556060820151816003015550505050505050565b82805461028e906105cf565b90600052602060002090601f0160209004810192826102b057600085556102f7565b82601f106102c957805160ff19168380011785556102f7565b828001600101855582156102f7579182015b828111156102f65782518255916020019190600101906102db565b5b5090506103049190610308565b5090565b5b80821115610321576000816000905550600101610309565b5090565b600061033861033384610536565b610511565b90508281526020810184848401111561035457610353610695565b5b61035f84828561058d565b509392505050565b600082601f83011261037c5761037b610690565b5b813561038c848260208601610325565b91505092915050565b6000813590506103a4816106b5565b92915050565b600080600080608085870312156103c4576103c361069f565b5b600085013567ffffffffffffffff8111156103e2576103e161069a565b5b6103ee87828801610367565b945050602085013567ffffffffffffffff81111561040f5761040e61069a565b5b61041b87828801610367565b935050604061042c87828801610395565b925050606061043d87828801610395565b91505092959194509250565b60006020828403121561045f5761045e61069f565b5b600061046d84828501610395565b91505092915050565b600061048182610567565b61048b8185610572565b935061049b81856020860161059c565b6104a4816106a4565b840191505092915050565b6104b881610583565b82525050565b600060808201905081810360008301526104d88187610476565b905081810360208301526104ec8186610476565b90506104fb60408301856104af565b61050860608301846104af565b95945050505050565b600061051b61052c565b90506105278282610601565b919050565b6000604051905090565b600067ffffffffffffffff82111561055157610550610661565b5b61055a826106a4565b9050602081019050919050565b600081519050919050565b600082825260208201905092915050565b6000819050919050565b82818337600083830152505050565b60005b838110156105ba57808201518184015260208101905061059f565b838111156105c9576000848401525b50505050565b600060028204905060018216806105e757607f821691505b602082108114156105fb576105fa610632565b5b50919050565b61060a826106a4565b810181811067ffffffffffffffff8211171561062957610628610661565b5b80604052505050565b7f4e487b7100000000000000000000000000000000000000000000000000000000600052602260045260246000fd5b7f4e487b7100000000000000000000000000000000000000000000000000000000600052604160045260246000fd5b600080fd5b600080fd5b600080fd5b600080fd5b6000601f19601f8301169050919050565b6106be81610583565b81146106c957600080fd5b5056fea2646970667358221220c9c76eb706d25e58ff3ba21bcffb0d110e08942c031a1b8991d3a1a29f4e346f64736f6c63430008070033",
  "linkReferences": {},
  "deployedLinkReferences": {}
}