{
  "_format": "hh-sol-artifact-1",
  "contractName": "invoiceContract",
  "sourceName": "contracts/invoiceContract.sol",
  "abi": [
    {
      "inputs": [],
      "stateMutability": "nonpayable",
      "type": "constructor"
    },
    {
      "anonymous": false,
      "inputs": [
        {
          "indexed": false,
          "internalType": "uint256",
          "name": "invoiceID",
          "type": "uint256"
        }
      ],
      "name": "invoiceCreated",
      "type": "event"
    },
    {
      "inputs": [
        {
          "internalType": "string",
          "name": "",
          "type": "string"
        }
      ],
      "name": "buyerDetails",
      "outputs": [
        {
          "internalType": "address",
          "name": "buyerAddress",
          "type": "address"
        }
      ],
      "stateMutability": "view",
      "type": "function"
    },
    {
      "inputs": [
        {
          "internalType": "address",
          "name": "buyerAddress",
          "type": "address"
        },
        {
          "internalType": "string",
          "name": "sellerPAN",
          "type": "string"
        },
        {
          "internalType": "string",
          "name": "buyerPAN",
          "type": "string"
        },
        {
          "internalType": "string",
          "name": "amount",
          "type": "string"
        },
        {
          "internalType": "uint256",
          "name": "date",
          "type": "uint256"
        },
        {
          "internalType": "string",
          "name": "status",
          "type": "string"
        }
      ],
      "name": "createInvoice",
      "outputs": [
        {
          "internalType": "uint256",
          "name": "",
          "type": "uint256"
        }
      ],
      "stateMutability": "nonpayable",
      "type": "function"
    },
    {
      "inputs": [
        {
          "internalType": "string",
          "name": "buyerPAN",
          "type": "string"
        }
      ],
      "name": "getAllTrans",
      "outputs": [
        {
          "components": [
            {
              "internalType": "uint256",
              "name": "id",
              "type": "uint256"
            },
            {
              "internalType": "address",
              "name": "sellerAddress",
              "type": "address"
            },
            {
              "internalType": "string",
              "name": "sellerPAN",
              "type": "string"
            },
            {
              "internalType": "string",
              "name": "invoiceAmount",
              "type": "string"
            },
            {
              "internalType": "uint256",
              "name": "invoiceDate",
              "type": "uint256"
            },
            {
              "internalType": "string",
              "name": "status",
              "type": "string"
            }
          ],
          "internalType": "struct invoiceContract.invoice[]",
          "name": "",
          "type": "tuple[]"
        }
      ],
      "stateMutability": "view",
      "type": "function"
    },
    {
      "inputs": [
        {
          "internalType": "string",
          "name": "",
          "type": "string"
        },
        {
          "internalType": "uint256",
          "name": "",
          "type": "uint256"
        }
      ],
      "name": "invoices",
      "outputs": [
        {
          "internalType": "uint256",
          "name": "id",
          "type": "uint256"
        },
        {
          "internalType": "address",
          "name": "sellerAddress",
          "type": "address"
        },
        {
          "internalType": "string",
          "name": "sellerPAN",
          "type": "string"
        },
        {
          "internalType": "string",
          "name": "invoiceAmount",
          "type": "string"
        },
        {
          "internalType": "uint256",
          "name": "invoiceDate",
          "type": "uint256"
        },
        {
          "internalType": "string",
          "name": "status",
          "type": "string"
        }
      ],
      "stateMutability": "view",
      "type": "function"
    },
    {
      "inputs": [
        {
          "internalType": "uint256",
          "name": "",
          "type": "uint256"
        }
      ],
      "name": "locationInvoices",
      "outputs": [
        {
          "internalType": "uint256",
          "name": "index",
          "type": "uint256"
        },
        {
          "internalType": "string",
          "name": "buyerPAN",
          "type": "string"
        }
      ],
      "stateMutability": "view",
      "type": "function"
    },
    {
      "inputs": [
        {
          "internalType": "uint256",
          "name": "invoiceID",
          "type": "uint256"
        },
        {
          "internalType": "string",
          "name": "status",
          "type": "string"
        }
      ],
      "name": "updateInvoiceStatus",
      "outputs": [],
      "stateMutability": "nonpayable",
      "type": "function"
    }
  ],
  "bytecode": "0x608060405234801561001057600080fd5b50336000806101000a81548173ffffffffffffffffffffffffffffffffffffffff021916908373ffffffffffffffffffffffffffffffffffffffff16021790555060006001819055506115e0806100686000396000f3fe608060405234801561001057600080fd5b50600436106100625760003560e01c806326224f94146100675780639ccc283f146100975780639d8967c2146100cc578063a5e49f53146100fc578063ba6397711461012c578063e431478f1461015d575b600080fd5b610081600480360381019061007c9190610c8c565b610179565b60405161008e91906111a0565b60405180910390f35b6100b160048036038101906100ac9190610dd2565b61043f565b6040516100c3969594939291906111bb565b60405180910390f35b6100e660048036038101906100e19190610d89565b610666565b6040516100f39190611163565b60405180910390f35b61011660048036038101906101119190610d89565b6106ba565b604051610123919061117e565b60405180910390f35b61014660048036038101906101419190610e2e565b61095d565b604051610154929190611231565b60405180910390f35b61017760048036038101906101729190610e5b565b610a09565b005b600060405180602001604052808873ffffffffffffffffffffffffffffffffffffffff168152506004866040516101b09190611135565b908152602001604051809103902060008201518160000160006101000a81548173ffffffffffffffffffffffffffffffffffffffff021916908373ffffffffffffffffffffffffffffffffffffffff16021790555090505060006040518060c0016040528060015481526020013373ffffffffffffffffffffffffffffffffffffffff1681526020018881526020018681526020018581526020018481525090506000604051806040016040528060028960405161026e9190611135565b9081526020016040518091039020805490508152602001888152509050806003600060015481526020019081526020016000206000820151816000015560208201518160010190805190602001906102c7929190610b4f565b509050506002876040516102db9190611135565b90815260200160405180910390208290806001815401808255809150506001900390600052602060002090600602016000909190919091506000820151816000015560208201518160010160006101000a81548173ffffffffffffffffffffffffffffffffffffffff021916908373ffffffffffffffffffffffffffffffffffffffff1602179055506040820151816002019080519060200190610380929190610b4f565b50606082015181600301908051906020019061039d929190610b4f565b506080820151816004015560a08201518160050190805190602001906103c4929190610b4f565b505050600160008154809291906103da90611452565b91905055507f661ca85580acd2d356fd22c3e27195dddea67469ae280ad2d86f5836c79d55006001805461040e919061133d565b60405161041b91906111a0565b60405180910390a160018054610431919061133d565b925050509695505050505050565b600282805160208101820180518482526020830160208501208183528095505050505050818154811061047157600080fd5b9060005260206000209060060201600091509150508060000154908060010160009054906101000a900473ffffffffffffffffffffffffffffffffffffffff16908060020180546104c1906113ef565b80601f01602080910402602001604051908101604052809291908181526020018280546104ed906113ef565b801561053a5780601f1061050f5761010080835404028352916020019161053a565b820191906000526020600020905b81548152906001019060200180831161051d57829003601f168201915b50505050509080600301805461054f906113ef565b80601f016020809104026020016040519081016040528092919081815260200182805461057b906113ef565b80156105c85780601f1061059d576101008083540402835291602001916105c8565b820191906000526020600020905b8154815290600101906020018083116105ab57829003601f168201915b5050505050908060040154908060050180546105e3906113ef565b80601f016020809104026020016040519081016040528092919081815260200182805461060f906113ef565b801561065c5780601f106106315761010080835404028352916020019161065c565b820191906000526020600020905b81548152906001019060200180831161063f57829003601f168201915b5050505050905086565b6004818051602081018201805184825260208301602085012081835280955050505050506000915090508060000160009054906101000a900473ffffffffffffffffffffffffffffffffffffffff16905081565b606060006002836040516106ce9190611135565b9081526020016040518091039020805480602002602001604051908101604052809291908181526020016000905b8282101561094e57838290600052602060002090600602016040518060c0016040529081600082015481526020016001820160009054906101000a900473ffffffffffffffffffffffffffffffffffffffff1673ffffffffffffffffffffffffffffffffffffffff1673ffffffffffffffffffffffffffffffffffffffff16815260200160028201805461078f906113ef565b80601f01602080910402602001604051908101604052809291908181526020018280546107bb906113ef565b80156108085780601f106107dd57610100808354040283529160200191610808565b820191906000526020600020905b8154815290600101906020018083116107eb57829003601f168201915b50505050508152602001600382018054610821906113ef565b80601f016020809104026020016040519081016040528092919081815260200182805461084d906113ef565b801561089a5780601f1061086f5761010080835404028352916020019161089a565b820191906000526020600020905b81548152906001019060200180831161087d57829003601f168201915b50505050508152602001600482015481526020016005820180546108bd906113ef565b80601f01602080910402602001604051908101604052809291908181526020018280546108e9906113ef565b80156109365780601f1061090b57610100808354040283529160200191610936565b820191906000526020600020905b81548152906001019060200180831161091957829003601f168201915b505050505081525050815260200190600101906106fc565b50505050905080915050919050565b6003602052806000526040600020600091509050806000015490806001018054610986906113ef565b80601f01602080910402602001604051908101604052809291908181526020018280546109b2906113ef565b80156109ff5780601f106109d4576101008083540402835291602001916109ff565b820191906000526020600020905b8154815290600101906020018083116109e257829003601f168201915b5050505050905082565b600260036000848152602001908152602001600020600101604051610a2e919061114c565b9081526020016040518091039020600360008481526020019081526020016000206000015481548110610a6457610a636114f9565b5b906000526020600020906006020160010160009054906101000a900473ffffffffffffffffffffffffffffffffffffffff1673ffffffffffffffffffffffffffffffffffffffff163373ffffffffffffffffffffffffffffffffffffffff161415610b4b5780600260036000858152602001908152602001600020600101604051610aef919061114c565b9081526020016040518091039020600360008581526020019081526020016000206000015481548110610b2557610b246114f9565b5b90600052602060002090600602016005019080519060200190610b49929190610b4f565b505b5050565b828054610b5b906113ef565b90600052602060002090601f016020900481019282610b7d5760008555610bc4565b82601f10610b9657805160ff1916838001178555610bc4565b82800160010185558215610bc4579182015b82811115610bc3578251825591602001919060010190610ba8565b5b509050610bd19190610bd5565b5090565b5b80821115610bee576000816000905550600101610bd6565b5090565b6000610c05610c0084611286565b611261565b905082815260208101848484011115610c2157610c2061155c565b5b610c2c8482856113ad565b509392505050565b600081359050610c438161157c565b92915050565b600082601f830112610c5e57610c5d611557565b5b8135610c6e848260208601610bf2565b91505092915050565b600081359050610c8681611593565b92915050565b60008060008060008060c08789031215610ca957610ca8611566565b5b6000610cb789828a01610c34565b965050602087013567ffffffffffffffff811115610cd857610cd7611561565b5b610ce489828a01610c49565b955050604087013567ffffffffffffffff811115610d0557610d04611561565b5b610d1189828a01610c49565b945050606087013567ffffffffffffffff811115610d3257610d31611561565b5b610d3e89828a01610c49565b9350506080610d4f89828a01610c77565b92505060a087013567ffffffffffffffff811115610d7057610d6f611561565b5b610d7c89828a01610c49565b9150509295509295509295565b600060208284031215610d9f57610d9e611566565b5b600082013567ffffffffffffffff811115610dbd57610dbc611561565b5b610dc984828501610c49565b91505092915050565b60008060408385031215610de957610de8611566565b5b600083013567ffffffffffffffff811115610e0757610e06611561565b5b610e1385828601610c49565b9250506020610e2485828601610c77565b9150509250929050565b600060208284031215610e4457610e43611566565b5b6000610e5284828501610c77565b91505092915050565b60008060408385031215610e7257610e71611566565b5b6000610e8085828601610c77565b925050602083013567ffffffffffffffff811115610ea157610ea0611561565b5b610ead85828601610c49565b9150509250929050565b6000610ec38383611080565b905092915050565b610ed481611371565b82525050565b610ee381611371565b82525050565b6000610ef4826112dc565b610efe81856112ff565b935083602082028501610f10856112b7565b8060005b85811015610f4c5784840389528151610f2d8582610eb7565b9450610f38836112f2565b925060208a01995050600181019050610f14565b50829750879550505050505092915050565b6000610f69826112e7565b610f738185611310565b9350610f838185602086016113bc565b610f8c8161156b565b840191505092915050565b6000610fa2826112e7565b610fac8185611321565b9350610fbc8185602086016113bc565b610fc58161156b565b840191505092915050565b6000610fdb826112e7565b610fe58185611332565b9350610ff58185602086016113bc565b80840191505092915050565b6000815461100e816113ef565b6110188186611332565b94506001821660008114611033576001811461104457611077565b60ff19831686528186019350611077565b61104d856112c7565b60005b8381101561106f57815481890152600182019150602081019050611050565b838801955050505b50505092915050565b600060c0830160008301516110986000860182611117565b5060208301516110ab6020860182610ecb565b50604083015184820360408601526110c38282610f5e565b915050606083015184820360608601526110dd8282610f5e565b91505060808301516110f26080860182611117565b5060a083015184820360a086015261110a8282610f5e565b9150508091505092915050565b611120816113a3565b82525050565b61112f816113a3565b82525050565b60006111418284610fd0565b915081905092915050565b60006111588284611001565b915081905092915050565b60006020820190506111786000830184610eda565b92915050565b600060208201905081810360008301526111988184610ee9565b905092915050565b60006020820190506111b56000830184611126565b92915050565b600060c0820190506111d06000830189611126565b6111dd6020830188610eda565b81810360408301526111ef8187610f97565b905081810360608301526112038186610f97565b90506112126080830185611126565b81810360a08301526112248184610f97565b9050979650505050505050565b60006040820190506112466000830185611126565b81810360208301526112588184610f97565b90509392505050565b600061126b61127c565b90506112778282611421565b919050565b6000604051905090565b600067ffffffffffffffff8211156112a1576112a0611528565b5b6112aa8261156b565b9050602081019050919050565b6000819050602082019050919050565b60008190508160005260206000209050919050565b600081519050919050565b600081519050919050565b6000602082019050919050565b600082825260208201905092915050565b600082825260208201905092915050565b600082825260208201905092915050565b600081905092915050565b6000611348826113a3565b9150611353836113a3565b9250828210156113665761136561149b565b5b828203905092915050565b600061137c82611383565b9050919050565b600073ffffffffffffffffffffffffffffffffffffffff82169050919050565b6000819050919050565b82818337600083830152505050565b60005b838110156113da5780820151818401526020810190506113bf565b838111156113e9576000848401525b50505050565b6000600282049050600182168061140757607f821691505b6020821081141561141b5761141a6114ca565b5b50919050565b61142a8261156b565b810181811067ffffffffffffffff8211171561144957611448611528565b5b80604052505050565b600061145d826113a3565b91507fffffffffffffffffffffffffffffffffffffffffffffffffffffffffffffffff8214156114905761148f61149b565b5b600182019050919050565b7f4e487b7100000000000000000000000000000000000000000000000000000000600052601160045260246000fd5b7f4e487b7100000000000000000000000000000000000000000000000000000000600052602260045260246000fd5b7f4e487b7100000000000000000000000000000000000000000000000000000000600052603260045260246000fd5b7f4e487b7100000000000000000000000000000000000000000000000000000000600052604160045260246000fd5b600080fd5b600080fd5b600080fd5b600080fd5b6000601f19601f8301169050919050565b61158581611371565b811461159057600080fd5b50565b61159c816113a3565b81146115a757600080fd5b5056fea2646970667358221220b242936b636646606107a6d0bb0d88a76ecd749218e726e8d1db79640eb1f87764736f6c63430008070033",
  "linkReferences": {},
  "deployedLinkReferences": {}
}